:020000040800F2
:100000003042012079040008ED750008A957000866
:10001000916A0008392A00084DAF0008000000006E
:100020000000000000000000000000004503000880
:10003000272C000800000000F103000865040008F8
:100040009304000893040008930400089304000834
:100050009304000893040008930400089304000824
:100060009304000893040008930400089304000814
:100070009304000893040008752B000893040008FB
:1000800093040008930400089304000893040008F4
:1000900093040008930400089304000893040008E4
:1000A00093040008930400089304000893040008D4
:1000B000930400089304000893040008955900086D
:1000C0009159000893040008930400089304000861
:1000D000930400089304000893040008318000088A
:1000E0009304000893040008930400089304000894
:1000F000930400089304000893040008852B00086B
:100100009304000893040008930400089304000873
:100110009304000893040008930400089304000863
:100120009304000893040008930400089304000853
:100130009304000893040008930400089304000843
:100140009304000893040008930400081176000843
:100150009304000893040008930400089304000823
:100160009304000893040008930400089304000813
:1001700093040008930400089304000800000000A2
:10018000930400089304000800F002F800F096F8C9
:100190000AA090E8000C82448344AAF10107DA45E2
:1001A00001D100F08BF8AFF2090EBAE80F0013F09E
:1001B000010F18BFFB1A43F001031847544E01000A
:1001C000744E0100103A24BF78C878C1FAD852079B
:1001D00024BF30C830C144BF04680C6070470000C1
:1001E0000023002400250026103A28BF78C1FBD840
:1001F000520728BF30C148BF0B6070476E2900F01E
:100200004E86702900F0BF82662911F02980652989
:1002100011F02680672911F02380612911F02280D6
:1002200003681B0A28BF41F08001692900F0308271
:10023000642900F02D82752900F02A826F2900F0D0
:100240004F87782900F08B82E92900F0E986E429BC
:1002500000F0E686F52900F0E386EF2900F04C87F0
:10026000F82900F08A820368DB0928BF41F0800189
:10027000632900F05886732900F05D86E32901F0B8
:100280007B83F32901F08083002070471FB510F0B5
:10029000E2FF9DE8030000F0FDFC01F0CDFB04004F
:1002A0000020002110F04AFF401C60600020002167
:1002B00010F02EFFE0601FBD10B510BD01F08FFBE8
:1002C0001146FFF7E3FF0DF0CDFA01F069FC03B42E
:1002D000FFF7F2FF03BC0BF00FFC000080F309886E
:1002E0007047EFF309807047684680F30988044837
:1002F0000078C00714BF0220032080F314887047E1
:1003000000130108DFF818C0EFF305831B0618BFC0
:100310006047EFF31483DB0708BF604700DF7047D7
:100320009FDD0008DFF818C0EFF305831B0618BF38
:100330006047EFF31483DB0708BF604700DF7047B7
:10034000A9DF0008EFF30980816911F8021CC9BB1D
:1003500010B590E80F10E047BDE81040EFF3098CAE
:10036000204B93E80600914229D081B10CB41EF0D5
:10037000100F06BF2CED108A0323012381F82130D2
:100380002CE9F00FC1F824C00EF060F90CBC1A6023
:10039000D2F824C0BCE8F00F92F8213013F0020F1D
:1003A0001ABFBCEC108A6FF0120E6FF0020E8CF3C5
:1003B000098813F0010F08BF704792F82000CCF8AD
:1003C0000000704710B5084A1268914209D8074CDE
:1003D00054F8214090E80F10A047EFF3098C8CE807
:1003E0000F0010BD14000020B4230008B42300083F
:1003F00010B50EF005F8BDE81040194B93E8060063
:10040000914208BF70470CB4EFF3098C1EF0100F37
:1004100006BF2CED108A0223002381F821302CE93D
:10042000F00FC1F824C00EF011F90CBC1A60D2F81C
:1004300024C0BCE8F00F92F8213013F0020F1ABF6D
:10044000BCEC108A6FF0120E6FF0020E8CF309886C
:1004500013F0010F1CBF92F82030CCF80030704729
:100460001400002010B50EF0BBF9C4E710B50DF074
:10047000D5FB0EF0B5F9BEE70A4880470A480047A9
:10048000FEE7FEE7FEE7FEE7FEE7FEE7FEE7FEE744
:10049000FEE7FEE70548064D2C68064900EB04021E
:1004A000054B70473D7C000889010008300700209B
:1004B000F01201083042012030400120004870470E
:1004C000D03F012070470B3020F0070070472DE926
:1004D000F04117460E460446FFF7F5FFA0420546D9
:1004E00033D9002F1CBF06F10C000BF0CFFA3046B9
:1004F0007468F4B12168A94217D305F1080291424A
:100500003CBF6168416007D3626861194A60226834
:10051000521B0A6041602560002F1CBF06F10C00D1
:100520000BF0DCFA201DBDE8F08120466468002C49
:10053000E0D12946304600F099FB0028D7D1002FA2
:100540001CBF06F10C000BF0C9FA0020BDE8F081D9
:1005500010B5044600F081FB01682046BDE810405C
:100560000122B4E7B2F120030AD5C2F1200320FA38
:1005700002F001FA03F341FA02F140EA0300704786
:1005800041FA03F04FEAE171704700007CB51D4667
:1005900016460C00009001D02044401E074B7B44BF
:1005A0002A4669460190304600F093FC05461CB18E
:1005B0000020694600F0A0FC28467CBD61090000CF
:1005C0000FB4044910B503AA029800F0B9FC10BC9E
:1005D0005DF814FB000000200FB41CB5084B06AA00
:1005E0007B4469460090059800F073FC04460020A7
:1005F000694600F081FC20461CBC5DF814FB00003D
:10060000150900000FB47CB50C0009AA009001D0B8
:100610002044401E084B7B4469460190089800F036
:1006200058FC05461CB10020694600F065FC2846D0
:100630007CBC5DF814FB0000E908000070B50C46B6
:100640000546012A05D02878800600D5EA690023EE
:1006500002E0012305E05B1C934202D2E05C00282B
:10066000F9D1A869E618C01AA861286A1844286256
:10067000284600F082FB04E0D5E9012114F8010BC3
:100680009047B442F8D3284600F08DFB70BD0000BF
:100690002DE9F0410646002410687529314616A55B
:1006A00010D000F091FB002802DA404213A507E0C9
:1006B00031688A0701D512A502E0490704D511A5C2
:1006C000012401E000F089FB00210A2206F1240741
:1006D00009E0B0FBF2FCB0FBF2F302FB1C0030308F
:1006E00078541846491C0028F3D123462A46304640
:1006F000BDE8F04100F07ABB000000002D000000D2
:100700002B00000020000000F0B40D460188090510
:1007100002D5214C7C4402E01F4C7C440E34002165
:1007200000F1240608E002F00F071209E75D42EA33
:1007300003721B097754491C52EA0307F3D102786C
:100740000023120704D5702D06D009B102231134FD
:100750002246F0BC00F04ABB01231034F8E770B524
:1007600004460D462146106800F037FB0246294634
:100770002046BDE870400023C6E7D21D22F00703E3
:10078000D3E90023C0E70368126843F02003036045
:100790000823C3610023B7E7D44501002DE9F05FCA
:1007A000894604464FF0000ADFF874B1FB44C0F8F4
:1007B00020A02046E1688847002874D0252806D06C
:1007C000D4E901219047206A401C2062F1E700260D
:1007D0005F462046E16888472028054607DB312D23
:1007E00005D2781910F8200C08B10643F1E7B007DC
:1007F00001D526F00406C4F81CA00027C4F818A0F0
:100800002A2D09D028460BF03AF938B304EB8708B3
:10081000303DC8F8185019E059F8041B204604EB85
:1008200087029161E1688847012F054618D1E06988
:10083000002820DA26F020061DE0D8F8180000EB8A
:10084000800005EB40003038C8F818002046E16809
:10085000884705460BF013F90028EED1012F0AD086
:100860002E2D08D12046E16888477F1C0546022FBF
:1008700046F02006C4DBA069002803DA404246F0B7
:100880000106A061F00701D026F010066C2D0BD0F8
:10089000682D09D04C2D39D06A2D35D0742D35D026
:1008A0007A2D33D016E038E0E1682F46204688479D
:1008B000B842054609D16C2F26D04FF48060E1681C
:1008C000064320468847054604E06C2F1AD04FF4B3
:1008D000807006430DB3A5F14100192802D82035D8
:1008E00046F400664A462946204626604E46FFF7F3
:1008F00085FC80B101280BD0F61D26F0070000F121
:10090000080956E74020E4E78020D8E70020D6E732
:1009100006F104094DE7284652E7206ABDE8F09F3A
:10092000644501000022CBB210F8011B994200D1AE
:10093000421E0029F8D11046704740EA010370B505
:100940009B072ED14FF00136042A2AD308C810C9BC
:100950009D1B9D43121F15EAC61517D0D8B2E1B2F0
:10096000401A50EA056110D198B2A1B2401A50EA7B
:1009700005410AD123F07F4024F07F41401A50EA1C
:10098000052102D1180EA0EB146070BDA342DBD08C
:1009900018BA21BA884201D9012070BD4FF0FF304A
:1009A00070BD0AB9002070BD10F8013B11F8014B71
:1009B00063B1A3420AD1521E08D010F8013B11F8CE
:1009C000014B1BB1A34201D1521EEDD1181B70BDCA
:1009D000032A40F2308010F0030C00F0158011F86B
:1009E000013BBCF1020F624498BF11F801CB00F843
:1009F000013B38BF11F8013BA2F1040298BF00F897
:100A000001CB38BF00F8013B11F0030300F0678011
:100A1000083AC0F0088051F8043B083A51F804CB7A
:100A2000A0E80810F5E7121D5CBF51F8043B40F840
:100A3000043BAFF30080D20724BF11F8013B11F84B
:100A400001CB48BF11F8012B24BF00F8013B00F88F
:100A500001CB48BF00F8012B7047431A28BF9A42C8
:100A60007FF6B6AF032A1044114440F2268010F0FE
:100A7000030F1EBF11F8013D521E00F8013D10F09A
:100A8000030F7FF4F6AF11F0030300F05283083A2E
:100A9000C0F00B8051F8043D083A51F804CD40F8FD
:100AA000043D40F804CDFFF7F3BF121D5CBF51F8C1
:100AB000043D40F8043DAFF30080D20724BF11F895
:100AC000013D11F801CD48BF11F8012C24BF00F8F9
:100AD000013D00F801CD48BF00F8012C704710B56A
:100AE000203AC0F00B80B1E81850203AA0E8185026
:100AF000B1E81850A0E81850BFF4F5AF5FEA027CE7
:100B000024BFB1E81850A0E8185044BF18C918C055
:100B1000BDE810405FEA827C24BF51F8043B40F8F6
:100B2000043B08BF7047D20728BF31F8023B48BFDB
:100B300011F8012B28BF20F8023B48BF00F8012B19
:100B400070474FF000020429C0F0128010F0030C2F
:100B500000F01B80CCF1040CBCF1020F18BF00F8B0
:100B6000012BA8BF20F8022BA1EB0C0100F00DB85F
:100B70005FEAC17C24BF00F8012B00F8012B48BFBD
:100B800000F8012B70474FF0000200B51346944661
:100B90009646203922BFA0E80C50A0E80C50B1F1D5
:100BA0002001BFF4F7AF090728BFA0E80C5048BFE9
:100BB0000CC05DF804EB890028BF40F8042B08BF87
:100BC000704748BF20F8022B11F0804F18BF00F883
:100BD000012B70474FF0013C50F8042B51F8043BB7
:100BE0009A4221D1A2EB0C03934313EACC1317D101
:100BF00050F8042B51F8043B9A4215D1A2EB0C0398
:100C0000934313EACC130BD150F8042B51F8043B57
:100C10009A4209D1A2EB0C03934313EACC13DBD025
:100C20004FF00000704700BFD01A01BAB1FA81F14D
:100C300001F0180122FA01F0CB40C1F12001DBB232
:100C4000C0B2C01A2CFA01F3D11A914311EAC311B0
:100C5000E6D1704770477047704710B5FFF72EFC1C
:100C6000083010BD704770477047704738B504466C
:100C70000A4600206946AFF30080002808BF38BD4F
:100C800002460099204600F07EFA012038BD01207E
:100C900000F09EBEF8B5AFF30080054600200C467C
:100CA000102000BF0646A819A0420DD93246694659
:100CB0000020AFF30080070008BF00F089FE009815
:100CC000A04218BF0546C419FFF7C7FF05600746D5
:100CD000F01D20F007004619284600F00AF8B4423B
:100CE00008BFF8BDA21B31463868BDE8F84000F0E7
:100CF0004ABA00210160C0E901100C300AF0D6BEEA
:100D00001020704770B516460D46041F002808BF16
:100D100070BD002E1CBF05F10C000AF0B7FE2B467B
:100D20005868002818BFA04238BF0346F8D3196896
:100D3000CA18A24218BF5C6003D122681C46114445
:100D4000196021680A19824218BF606004D14268A4
:100D50006260006808442060002E1CBF05F10C0092
:100D60000AF0BCFE70BD10B50446FFF776FF0168BF
:100D70002046BDE810400122C4E770B504468569ED
:100D80000068C10601D5302600E02026C00707D044
:100D900070BDD4E9012130469047206A401C206292
:100DA0006D1EF6D570BD70B5044685690078C00724
:100DB00007D170BDD4E9012120209047206A401C52
:100DC00020626D1EF6D570BD09684A0501D540B296
:100DD0007047C905FCD500B2704709684A0501D5BE
:100DE000C0B27047C905FCD580B270472DE9F04705
:100DF0000D4699469246044600F12408016888068B
:100E000004D5E06921F01001216000E00120A84232
:100E100001DD471B00E00027A1697A1902EB0900F8
:100E2000081AA0612078C00602D42046FFF7A5FF6B
:100E3000002608E0D4E901211AF806009047206A4C
:100E4000401C761C20624E45F4DB2078C0060AD593
:100E50002046FFF792FF06E0D4E9012130209047B9
:100E6000206A401C2062381EA7F10107F4DC07E06D
:100E7000D4E9012118F805009047206A401C20623F
:100E8000281EA5F10105F3DC2046FFF78CFF207832
:100E9000000602D50220BDE8F0870120FBE71168BB
:100EA0000268006A530501D508700AE0D30501D530
:100EB000088006E0130603D5C217C1E9000200E06E
:100EC000086001207047000001694A1C026108782F
:100ED000704700B58FB0CDE901310021059105497A
:100EE0007944CDE9031011466846FFF757FC0FB06F
:100EF00000BD0000E5FFFFFF0A6802F8010B0A6071
:100F00007047D1E900239A4202D2531C0B60107043
:100F1000704710B5436913B1AFF3008001E0FFF7EC
:100F20008DFB012010BD127800F124010A7000220F
:100F30004A700122EDE711684FF0FF32E9E7000047
:100F4000074B70B50D467B44FFF7C3FF04462846A8
:100F50000CF074F810B14FF0FF3070BD204670BD3A
:100F600021C400002DE9FF5F15468A460446DFF8DC
:100F7000AC80F8440027D8E900103E46CDE90010C7
:100F800010E03AF816106A4602A800F001FD411C74
:100F900007D02178890603D5E269391891420DD826
:100FA0000744761C2078800602D5E069B84205DD4A
:100FB000AE42E6DB3AF816000028E2D1A069C01B79
:100FC000A0612046FFF7D9FED8E90010CDE9001056
:100FD000002017E03AF818106A4602A800F0D8FC82
:100FE000B0F1FF3F81460BD000250DF1080B05E065
:100FF000D4E901211BF8050090476D1C4D45F7D33E
:1010000008F10100B0428046E4DB206A38442062E7
:101010002046FFF7C8FEBDE8FF9F0000B23D01007B
:101020002DE9F0418046D21D22F007020025D2E9C9
:101030000002F52915A614D0011E72F1000106DA8E
:101040000023D0EB030063EB020211A608E0D8F8FE
:1010500000108B0701D50FA602E0490701D50EA6A7
:1010600001251146002408F1240704E000F0AAF845
:1010700030323A55641C50EA0102F7D12B46324611
:1010800021464046BDE8F041FFF7B0BE0000000039
:101090002D0000002B0000002000000030B40021D3
:1010A00000F1240408E002F00705D208303542EAD6
:1010B0004372DB086554491C52EA0305F3D1046806
:1010C000002310A2250708D504F020040C4304D007
:1010D000C46901230CA2641EC46130BCFFF786BE44
:1010E00010B5044621461068FFF777FE02462046F9
:1010F000BDE810400023D1E7D21D22F00701D1E95D
:101100000023CBE70000000030000000431A28BF96
:101110009A427FF6E4AC104410F0030F11441EBF56
:1011200011F8013D521E00F8013D10F0030F7FF44D
:10113000F6AF103AC0F00A8010B531E91850103AF5
:1011400020E91850BFF4F9AFBDE81040530724BFA1
:1011500031E9081020E9081044BF51F8043D40F877
:10116000043D12F0030F08BF7047D20728BF31F8C3
:10117000023D48BF11F8012C28BF20F8023D48BFAE
:1011800000F8012C704730B404468C464368002BAD
:1011900018BF634538BF1846F8D303681844604544
:1011A00007D0C81C20F0070000F1040CACEB0100D4
:1011B000121A2146CCF8002030BC00220CF10400A9
:1011C000FFF7A0BD30B5B0F10A024FEA900E71F101
:1011D00000034EEA817EB0EB0E0061EB91014FEA15
:1011E000101E4EEA017E10EB0E0041EB11114FEA8A
:1011F000102E4EEA016E10EB0E0041EB11214FEA6A
:10120000104E4EEA014E10EB0E0041EB114140181A
:1012100041F100014FEAD00040EA41704FEAD101AC
:1012200010EB80054FEA810444EA907444EB01041A
:101230006D1944EB0404521BA3414FF0000348BF57
:101240000A3200D530BD401C41F1000130BD70476D
:101250002DE9FF4F0C461E464FF0FF378BB0D2E909
:101260000001DDF860800A908A46C1F30A5505B98D
:101270003D46002108464FF00000BAF1000F00F48F
:10128000400005DA00EB80004FF4400101EA500015
:101290004FEA9059B9F1010F00DDB9460A9850EABA
:1012A0004A000ED044F61050A5F2FF3545432F14E6
:1012B000B8F1000F1ED07542291E1EDDC9F10002D3
:1012C0001CE0B8F1010F4FF0000001D0302103E025
:1012D000F24305E02154401CB042FBDB30460022C3
:1012E000002121540B99C1F80880C1E900200FB0FA
:1012F000BDE8F08FBD1B6D1CDEE74A4600DA69428F
:1013000006A800F0DFFB06AB93E8070003AB83E819
:10131000070050460A9900F092FC8DE80700A0F5FE
:1013200000501F3800900398002D09DD42F21F0184
:101330004A46084403A90390684600F0F1FE08E01D
:10134000A0F500504A461F3803A90390684600F0F4
:10135000FBFE8DE807000004000C03D04FF0FF30C7
:10136000410800E01046B8F1000F03D000220092BF
:1013700015461EE0751E05D4FFF724FF3032625576
:101380006D1EF9D5B3460122084302D000227F1C0E
:1013900004E02078302801D100227F1E002A09971E
:1013A00086D01DE0112D07DAFFF70CFF30326255B1
:1013B0006D1C50EA0102F5D1084302D00098C8B173
:1013C0000EE00021681E05E0235C625C6354225439
:1013D000401E491C8142F7DBAB46A81B401E09900A
:1013E000002004F80B000B98099AC0F80880C0E9A7
:1013F000002B7CE711264FF0000859E72DE9F04F4C
:1014000088460446D21D22F0070191B0D1E90001BF
:10141000CDE90A010AF078FA02460B98C00F01D014
:101420002D2007E02068810701D52B2002E0202134
:1014300001EAC000032A099001D0072A05DB034610
:101440004146204600F0FEFA0BE12078800601D5E7
:10145000E06900E00620B8F1650F814606D0B8F1DA
:10146000660F18D0B8F1670F70D131E00020B9F1E4
:10147000110F009001DB112301E009F101030AAA19
:1014800001A90CA8FFF7E4FEDDE90C70002609F1C4
:101490000105834647E001204B4600904FF000478E
:1014A0000AAA01A90CA8FFF7D3FEDDE90DB00C993B
:1014B0005D46002610B909F101000D18B9EB0500D1
:1014C00003D4C0F1FF3609F10105A5EB09002BE0BB
:1014D000B9F1010F01DA4FF001090020B9F1110F44
:1014E0000090484601DD112300E003460AAA01A945
:1014F0000CA8FFF7ADFEDDE90C704D4600268346D3
:10150000207800070AD4AB4500DA5D4601A8012D1A
:1015100004DD411911F8011C302907D04F4502DACA
:1015200017F1040F04DA012082460FE06D1EEEE78A
:10153000002F02DCED1B3E4403E0781CA84200DDD6
:101540007D1CB81B00F1010A4FF00047207800070E
:1015500003D4AA4501DB4FF0FF3A0021B7F1004F59
:101560000DF143088DF8431024D002202B23002FC7
:1015700001DA7F422D230A21021EA0F1010000DCC6
:101580005FB197FBF1FC97FBF1F201FB1C7C174666
:101590000CF1300C08F801CDEEE7A8F10100037062
:1015A0002188090501D5452100E06521A0F1010848
:1015B00000F8011C09980FA9A1EB0807FF1D00B155
:1015C0000120411901EBEA70A1693844081A401E54
:1015D000A0612078C00602D42046FFF7CEFB099810
:1015E00028B1D4E901219047206A401C206220786C
:1015F000C00622D52046FFF7C0FB1EE0002E04DB0C
:10160000B34502DD01A8805D00E03020D4E901216E
:101610009047206A401C2062761CAAF101005FEA14
:10162000000A0AD100F008FAC0680168405CD4E9F9
:1016300001219047206A401C2062281EA5F1010567
:10164000DCDC07E0D4E9012118F8010B9047206A9F
:10165000401C2062381EA7F10107F3DC2046FFF78B
:10166000A2FB032011B043E62DE9F04F04460D46DE
:10167000D21D22F0070089B0D0E9009248461746F3
:1016800039460AF041F90246F80F01D02D2307E050
:101690002068810701D52B2302E0202101EAC00345
:1016A0008DF820300BB1012000E00020032A824693
:1016B00001D0072A04DB2946204600F0C3F93DE1AA
:1016C0002078800601D40D2500E0E569C7F30A56AD
:1016D0000D2D49DA00214FEA175B08464FF0000054
:1016E000002F00F4400007DA00EB80004FF44001C7
:1016F00000EBD07001EA60008115012901DD4FF097
:10170000FF3100224FEA850CBCF1180F06D31346B7
:10171000ACF118004FF08052C24003E04FF4801348
:1017200023FA0CF30CF10C0CBCF1200F04D3ACF138
:10173000200C09FA0CF001E007FA0CF000294FF038
:10174000004801DD18B90FE00ED140450CD319EB6C
:1017500002095F4121B9404502D19F4329EA0209AC
:10176000BBEB175F00D0761C2088000502D57B48B4
:10177000784402E079487844193808AA302302F8FE
:101780000A30037C0AF10101002E0AF1020A5354C7
:101790006A4602DC4FF0300101E04FF031014FF0BA
:1017A00001088DF8001002D0A6F2FF3603E059EAD6
:1017B000470100D06A4E002D02DC2178090704D5CC
:1017C0004FF002082E218DF80110C44600210BE0D5
:1017D000C7F303433F01C35C491C6D1E02F8083088
:1017E000052908F1010801DA002DF1DC00210CE0E7
:1017F00000EB1973491C1B786D1E082902F808308C
:101800004FEA091908F1010801DA002DF0DC21780E
:10181000890602D514E0A8F10108E04505DD02EBD8
:10182000080111F8011C3029F5D0B8F1000F07DDCF
:1018300002EB080111F8011C2E2901D1A8F10108C1
:10184000002D05DD3E2102F808106D1E08F101088B
:10185000407C002E02F8080008F1010804DA2D206F
:10186000764202F8080002E02B2002F808000A2164
:101870004FF47A70864208F101080BDB96FBF0F317
:10188000303302F8083096FBF0F308F1010800FB52
:10189000136601E0642E0CDB642096FBF0F330331A
:1018A00002F8083096FBF0F308F1010800FB13661C
:1018B00001E00A2E06DB96FBF1F0303002F808005A
:1018C00008F1010896FBF1F001FB1060303002F8DE
:1018D0000800A16908F1010808EB050202EB0A0003
:1018E000081AA0612078C00602D42046FFF745FA06
:1018F000216A08AE01EB0A00206204E0D4E901216C
:1019000016F8010B9047BAF1010AF7D22078C00609
:1019100002D52046FFF731FA6E4609E016F8010BB2
:101920003E280FD0D4E901219047206A401C206254
:10193000B8F10108F2D22046FFF735FA09B00320CA
:10194000BDE8F08F206A2844206203E0D4E9012139
:10195000302090476D1EEBD3F8E70000CF35010033
:1019600002FCFFFF10B5436913B1AFF3008001E043
:10197000FFF7F8FA012010BD128800F124018284DB
:101980000022C2840122EDE711684FF0FF32E9E73F
:1019900070B516460C46054600F046F8036893F805
:1019A0000101012806D0FF2C0FD8185D68B1012075
:1019B0002C7070BDD3F807013246214603F207139D
:1019C00003442846BDE8704018474FF0FF3070BD13
:1019D00010B500F0F3F8BDE8104000F0EAB8754625
:1019E000FEF76CFDAE4605006946534620F0070041
:1019F000854618B020B5FEF74DFDBDE820404FF0FC
:101A000000064FF000074FF000084FF0000B21F0E8
:101A10000701AC46ACE8C009ACE8C009ACE8C009B5
:101A2000ACE8C0098D46704710B500F005F8001D00
:101A300010BD00BF09F7000010B5FEF73FFD2030D4
:101A400010BD00002DE9F0411F4604460326016841
:101A5000072A01F4006004DB08B116A505E016A50D
:101A600003E008B115A500E015A521F010002060E5
:101A7000A069C01EA0610FB1401EA0612046FFF703
:101A80007CF94FB1D4E9012138469047206A401CC7
:101A90002062C01C206206E0206AFAE7D4E9012136
:101AA00015F8010B9047761EF8D22046FFF77BF918
:101AB000BDE8F0814E414E006E616E00494E460019
:101AC000696E66002DE9F047814616468AB03348B4
:101AD00078440DC88DE80D0030487844801C03AC74
:101AE0000DC884E80D0041F69B300844372190FB77
:101AF000F1F290FBF1F5A5F1800501FB12041B3C0E
:101B000002D56442012000E00020DFF890A080466A
:101B10000027FA44AAF1BE0A0DE0E00709D03246D8
:101B2000684607EB47010AEB810100F00DFB8DE8E9
:101B3000070064107F1C002CEFD1184F7F44AC3F8E
:101B400018E0E80714D007EB04100DF1180A90E82C
:101B50000E008AE80E00C068F04201D19819089082
:101B6000324606A903A800F0EFFA03AB83E80700AA
:101B70006D10641C002DE4D132466946B8F1000FA7
:101B800003A802D000F0CCFA01E000F0DDFAC9E9C8
:101B90000001C9F808200AB0BDE8F0870033010051
:101BA00010B50446AFF300802046BDE81040FEF7B4
:101BB0008EBB002801D009F09FBF704710B50128E7
:101BC00005D0002103A000F021F8012010BD09A1DB
:101BD000F8E7000053494752544D454D3A204F75A0
:101BE00074206F662068656170206D656D6F727915
:101BF000000000003A2048656170206D656D6F72CD
:101C00007920636F727275707465640070B50546F3
:101C10000C460A2000E06D1C09F06FFF35B12878F2
:101C20000028F8D102E0641C09F067FF14B12078A5
:101C30000028F8D1BDE870400A2009F05EBF5FEAD5
:101C4000400C08BF91F0000F4FEA8C234FEAC122ED
:101C500043EA51514FEA1C5018BF00F5F0404FEADB
:101C6000300018BF41F000415FEA6C5C00F0298051
:101C7000BCF1FF3F08BF40F080407047130C06BF27
:101C800012044FF0100C4FF0000C130E04BF1202A0
:101C90000CF1080C130F04BF12010CF1040C930F8C
:101CA00004BF92000CF1020CD30F04BF52000CF1E0
:101CB000010C11464FF00002A0F11F00A0EB0C0038
:101CC000704711F0004F08BF704731F000413FF4FA
:101CD000D5AF0B0C06BF09044FF0100C4FF0000CF1
:101CE0000B0E04BF09020CF1080C0B0F04BF090115
:101CF0000CF1040C8B0F04BF89000CF1020CCB0F0C
:101D000004BF49000CF1010CCCF12003A0EB0C0046
:101D100022FA03F302FA0CF241EA030100F1010096
:101D2000704720F07F4C80EA030023F07F47ACEB44
:101D3000070303F57C5300F0004003F1FF032DE996
:101D400080494FEA154B09B44FEA144325EA0B4E7C
:101D500024EA03480FF2042606EB132749083E78CD
:101D60005FEA320203FB0667C7F5000707FB06F6CA
:101D70004FEA54374FEAD64606F1020607FB066CD7
:101D8000CCF1005C4FEA1C472CEA074C07FB06F439
:101D90000CFB06F504EB15464FEA961634BF0020FF
:101DA0004FF000404FEAD13706FB07FC4FEA1C4CCE
:101DB0000CFB0BF7D21B03FB0CF761EB07010CFBD1
:101DC0000EF7B0EB074072EB17420CFB08F734BF7D
:101DD000A2EB0742B2EB074261EB17414FEA0C441A
:101DE0004FEA910706FB07FC4FEA1C4C0CFB0BF774
:101DF000B0EBC74072EB573203FB0CF734BFA2EBDA
:101E0000C742B2EBC74261EB57310CFB0EF7B0EBA8
:101E1000C70072EB57720CFB08F734BFA2EBC70286
:101E2000B2EBC70261EB5771039F4FEA816141EA50
:101E3000921104EBCC044FEAD1374FEA826206FBE1
:101E400007FC42EA90124FEA80604FEA1C4C0CFB00
:101E50000BF7D21B03FB0CF761EB07010CFB0EF732
:101E6000B0EB074072EB17420CFB08F734BFA2EB54
:101E70000742B2EB074261EB17414FEA8C554FEA3C
:101E8000910704EB9C2406FB07FC4FEA1C4C0CFB5F
:101E90000BF7B0EBC74072EB573203FB0CF734BFC4
:101EA000A2EBC742B2EBC74261EB57310CFB0EF716
:101EB000B0EBC70072EB57720CFB08F734BFA2EB14
:101EC000C702B2EBC70261EB577115EB4C254FEA25
:101ED000816141EA92114FEA82624FEAD13742EAC8
:101EE000901206FB07FC44F100044FEA80604FEAC1
:101EF0001C4C0CFB0BF7D21B03FB0CF761EB07012F
:101F00000CFB0EF7B0EB074072EB17420CFB08F727
:101F100034BFA2EB0742B2EB074261EB174115EB6E
:101F20001C154FEA813141EA92414FEA823242EA7E
:101F300090424FEA80304FEA0C7644F1000448EAC0
:101F400003434EEA0B484FF0000EB2EB080C71EB66
:101F5000030724BF624639464EEB0E0E4FF0000BCE
:101F60000018524149414BEB0B0BB2EB080C71EBE3
:101F700003077BF1000B24BF624639464EEB0E0E81
:101F80004FF0000B0018524149414BEB0B0BB2EBE9
:101F9000080C71EB03077BF1000B24BF6246394646
:101FA0004EEB0E0E51EA020718BF46F0010616EB83
:101FB0000E7655F1000254F1000103D5BDE8890108
:101FC000BDE80088BDE88901BDE80048B619524166
:101FD00041EB0101A3F10103704780807F7E7D7C8E
:101FE0007B7A7978777676757473727171706F6EAB
:101FF0006E6D6C6C6B6A6A69686867666665646456
:10200000636362616160605F5F5E5E5D5D5C5C5BDF
:102010005B5A5A595958585757565655555554544E
:10202000535352525251515050504F4F4F4E4E4DAC
:102030004D4D4C4C4C4B4B4B4A4A4A4949494848F8
:102040004847474747464646454545444444444338
:1020500043434342424242414141002B26D4770050
:1020600021D01CB54FEA370703B44FF010004FF0F2
:1020700010014FF000000FBCBDE810400BF1010B48
:10208000BBF1010F08BF5FEA170722BF12F101027F
:1020900011F101014FF0004143F1000300F0004055
:1020A00043EA00007047F9D35708DAE746EA0646E4
:1020B00013F1400F4FEA16461FDD13F1200FDFBF6B
:1020C00016430A46002120335B42C8D0C3F12007E3
:1020D00046EA064602FA07F74FEA164646EA0706B8
:1020E000C3F1200722FA03F201FA07F721FA03F1FC
:1020F0004FF0000342EA0702B1E746EA020646EA69
:1021000006464FEA164646EA0106BCBF46EA0646C0
:10211000360C4FF000034FF000024FF000019EE735
:102120002DE9C048934630B491E8380007C831EA39
:10213000400C48BF34EA430C03D5FFF7F2FDFFF72C
:102140008CFFF0BCBDE800882DE9C048934630B450
:1021500091E8380007C810F0804F08BF13F0804F97
:1021600003D100F005F8FFF778FFF0BCBDE8008868
:1021700020F07F4780EA030023F07F4C07EB0C033D
:10218000A3F57C5300F00040A3F1FE0392F0000F92
:1021900000F0B38095F0000F00F077802DE9014941
:1021A0004FEA11404FEA144621EA004800FB06FCC2
:1021B00024EA064708FB06F607FB08F800FB07F7CA
:1021C00018EB06484CEB164C4FEA124B18EB07483D
:1021D0004FEA15464CEB174022EA0B4E0BFB06FC70
:1021E00025EA06470EFB06F607FB0EFE0BFB07F77C
:1021F0001EEB064E4CEB164C4FF000061EEB074E46
:102200004CEB174B18EB0B0840F1000018EB0E0BD2
:1022100058EB000840F100008F1A4FF000013CBF5E
:10222000C943661B14BFB5EB040C00213CBFC94376
:10223000F61B4FEA17444EEA8E0E27EA04454FEA92
:102240001C4704FB07622CEA074C05FB07F70CFB55
:1022500005F604FB0CFC16EB074642EB174216EBA7
:102260000C4642EB1C421BEB060658EB02024141B6
:1022700046EA9E0601D5BDE80189B619524141EBF7
:102280000101A3F10103BDE801894FEA14454FEABA
:10229000114724EA054621EA074C05FB07F406FB33
:1022A00007F70CFB06F105FB0CFC11EB074144EBB7
:1022B00017444FEA124711EB0C4144EB1C4422EA4D
:1022C000074C05FB07F206FB07F70CFB06F605FBC0
:1022D0000CFC16EB074642EB174216EB0C4642EBA2
:1022E0001C456A1854F1000148BF7047B6195241A5
:1022F00041EB0101A3F10103704795F0000F37D0C6
:102300004FEA11424FEA144721EA024624EA074CF9
:1023100002FB07F106FB07F70CFB06F402FB0CFCC3
:1023200014EB074441EB17414FEA154714EB0C44FB
:1023300041EB1C4125EA074C02FB07F506FB07F7BA
:102340000CFB06F602FB0CFC16EB074645EB1745AB
:1023500016EB0C4645EB1C42121951F1000148BF27
:102360007047B619524141EB0101A3F101037047D7
:102370004FEA14454FEA114724EA054621EA074C83
:1023800005FB07F106FB07F70CFB06F24FF0000612
:1023900005FB0CFC12EB074241EB174112EB0C4220
:1023A00051EB1C4148BF7047921841EB0101A3F16A
:1023B0000103704700000000102240F24C61014808
:1023C00009F03ABBE400002070470000174810B540
:1023D000026886B0002142F0080202600068144CD6
:1023E00000F00800059010200090012001900220CC
:1023F000CDE902106946204601F0FAFB0D4803F0D2
:10240000F3FB00221021204601F0D2FC0120DFF86E
:1024100028C000DF01221021204601F0C9FC012064
:10242000DFF814C000DF06B010BD000030380240F5
:10243000000C024000540040ADDE000830B587B00B
:1024400000258DF8145002220092012305AA03F002
:10245000EBFB04001CD072B61048818A00690904A5
:1024600081610F48406A02F058FD01A90DA081E882
:1024700031004FF4A170009010A315A2962104958D
:102480001D48FEF7BFF81C491CA0FEF799F8FEE7AF
:1024900003F01AFC9DF8140007B030BD4C0000207A
:1024A00000AB0020726573756C74203D3D2049328D
:1024B000435F4552525F4F4B0000000073746D3311
:1024C0003266345F646973636F766572792E630078
:1024D0004153534552543A20257328256429202D11
:1024E000205B25735D2C20307825582C20307825F2
:1024F000582C2030782558009827002025730D0A85
:102500000000000037B586B00025012308AA009519
:1025100003F08AFB04001CD072B61048818A00695F
:10252000090481610E48406A02F0F7FC01A90DA080
:1025300081E831004FF49770009010A314A2962107
:1025400004951D48FEF75EF81B491CA0FEF738F8FD
:10255000FEE703F0B9FB09B030BD00004C000020DD
:1025600000AB0020726573756C74203D3D204932CC
:10257000435F4552525F4F4B0000000073746D3350
:102580003266345F646973636F766572792E6300B7
:102590004153534552543A20257328256429202D50
:1025A000205B25735D2C20307825582C2030782531
:1025B000582C2030782558009827002025730D0AC4
:1025C000000000001CB5034615481649008809683C
:1025D00082B2002005E000BF51F82040E4B1401C69
:1025E00080B29042F8D372B60F48818A006909041C
:1025F00081610E48406A02F090FC0DA14520CDE9B2
:1026000000010DA310A296211548FDF7FBFF144908
:1026100014A0FDF7D5FFFEE741F820301CBD0000F7
:1026200008130108080000204C00002000AB002027
:1026300046414C53450000006173665F74696D65E7
:1026400072732E63000000004153534552543A20E8
:10265000257328256429202D205B25735D0000004B
:102660009827002025730D0A0000000070B5A1F125
:102670000803EFF3108404F001045A6072B60025D9
:1026800046683EB1816883601D600B60002C00D1FC
:1026900062B670BD436083601D6008F0E3F9F5E742
:1026A000F0B59EE0514A436C856C1468566884FB13
:1026B00003C786FB05EC84FB055486FB0353A7EB9D
:1026C0000C0723447F005B00C0E91173036C94681E
:1026D000C56C84FB03C7D66886FB05EC84FB0554F8
:1026E00086FB0353A7EB0C077F0023445B000764C2
:1026F000C364C36B1469056D84FB03C7566986FB0D
:1027000005EC84FB055486FB0353A7EB0C077F0005
:1027100023445B00C7630365836B9469456D84FB49
:1027200003C7D66986FB05EC84FB055486FB03537F
:10273000A7EB0C077F0023445B0087634365436B73
:10274000146A856D84FB03C7566A86FB05EC84FB1F
:10275000055486FB0353A7EB0C077F0023445B0063
:1027600047638365036B946AC56D84FB03C7D66AB0
:1027700086FB05EC84FB055486FB0353A7EB0C0793
:102780007F0023445B000763C365C36A146B50F882
:10279000605F84FB03C7566B86FB05EC84FB055426
:1027A00086FB0353A7EB0C077F00234440F8347CDF
:1027B0005B0040F83839946B50F83C5BD26B84FB7B
:1027C0000576036882FB03C784FB034382FB054253
:1027D000F61B76001A44520040F83C6C40F81C2965
:1027E000491E00293FF75EAFF0BD00008C4801088C
:1027F0007CB54FF480663046FDF7AAFE05464007DB
:1028000018D072B61E48818A0069090481611D488A
:10281000406A02F082FB1CA1DA20CDE9000123A36B
:1028200026A296212B48FDF7EDFE2A492AA0FDF7A6
:10283000C7FEFEE72A4800222A492B4B04E00C6819
:10284000521C10C04C6810C01C68B2EBD40FF6D3F9
:102850002C4600200A68401C04C44A68802804C42E
:10286000F8D322480121016006814560FDF73CFD57
:102870002A461F491F48DFF880C000DF7CBD0000EA
:102880004C00002000AB0020282875696E7433329C
:102890005F742970553634416C69676E6564202613
:1028A0002030783729203D3D203000006173665F7D
:1028B0007461736B696E69742E63000041535345F4
:1028C00052543A20257328256429202D205B257336
:1028D0005D0000009827002025730D0A000000000D
:1028E000182400201813010810130108602200208A
:1028F000FE000400D564000881E600080248416A31
:102900004FF480700AF088BF602200202DE9FF415B
:102910000E460746002021491446FF2551F8202085
:10292000A24200D10546401CC0B20828F6D3684632
:1029300001F0BAFE4FF001006907009014D04FF487
:102940008170019003200290684601F0D5FE144D7D
:102950004A20A9688847C0F3C4001C280ED001256E
:1029600004B02846BDE8F0810C48203050F825001E
:1029700001900A48403050F82500E4E7094928460C
:1029800023460D600025D0F800C0324639464A2063
:10299000E047204603F0C0F9E2E7000034130108E5
:1029A00080000020B400002070B505460C480C469D
:1029B0008AB200682946C3684A20984708B10120B6
:1029C00070BDB4F5003F01D2600801E04FF6FF7022
:1029D00082B22946034801F0A9FD002070BD000025
:1029E000B40000200CDD002010B504460B4801F0B7
:1029F00081FC0B482146006882694A20904708B153
:102A0000012010BD012C07D1012001F0E6F80022C1
:102A10001021044801F0CCF9002010BD0CDD00208D
:102A2000B4000020000C02400248416A4FF40070DC
:102A30000AF0F2BE60220020FEE708B1002103E0A8
:102A4000202070474000491C0028FBDA08467047E8
:102A500008B1002103E0202070474000491C0028F5
:102A6000FBDA0846704710B5FFF74CFD002010BD9B
:102A70000022134601E08354521C8A42FBDB70475C
:102A80000841C117B1EBE03F02D047F6FF70484064
:102A900000B2704708B520A1022008F04DFF1F27A3
:102AA000274DDFF8A08000246E4620464FF6FF79C0
:102AB000B5F84A10B5F848304A1C02F01F0293429C
:102AC00009D1002249466020DFF87CC000DFDFF832
:102AD0007CC000DF0EE0491C202900D300216A18C9
:102AE00092F8282008F80420641CA5F84A10A4B223
:102AF000410601D4BC42DBD306B1348011480078D2
:102B00000D2805D0BDF800100E4800F021F8C6E7EA
:102B100004F008FFC3E700000D0A2A2A205345529B
:102B200049414C20434F4D4D414E442048414E4475
:102B30004C4552205245414459202A2A0D0A000092
:102B400000AB0020682700206DDF0008B5DE00081C
:102B500003460A4601A1002008F0EEBE52656365F7
:102B6000697665642025642062797465733A20254E
:102B7000730D0A000248406A006B00F0FBBE0000C3
:102B800000AB00200148406B00F0F4BE0CDD0020DB
:102B900001681823CAB2103AB2FBF3F2054B6FF387
:102BA0000901032A9B5C436500D9091D016508469C
:102BB000704700006812010830B50468256825F4E4
:102BC00080252560046863608368402B036803D018
:102BD00099600068C26030BD9A600068C16030BD15
:102BE00010B500224FEA020100EB8203521CC3F829
:102BF0007C120F2AF8D300224FF400738418521C61
:102C000021779A42FAD30170417001228270C0F894
:102C1000B812027640238371417680F81C1280F846
:102C20001D22002010BD704710B5D02243F2CC0108
:102C30000F4808F001FF0E490122A1F15000016088
:102C4000A0F848200021A0F84A1080F84C204160EC
:102C5000084A426281604032C0E907120649816138
:102C6000064941610649C1600649016110BD000085
:102C700050AB00201CDC002019B10008FD35000815
:102C8000FF35000801360008F0B40D4C0B4D666AA4
:102C90003560656A6860606A8160606AC260606AA7
:102CA0000361616A00208861626A0C215161616A76
:102CB000C861606AF0BC02F0C6B90000004800407C
:102CC00000AB00202DE9FE4F0029DDE90C572FDD78
:102CD0004FF0FF3A002B1FDBBF4C029354F82260E9
:102CE000BE4C04EB460BBE4C54F8326004EBC202FF
:102CF0000096167900227C4214F0070404D015F8DF
:102D0000012BC4F12007BA401B1B36B1012E12D093
:102D1000032E72D0022E70D05BE10022134605E034
:102D200040F8223000EB8204921C63608A42F7DB99
:102D30000020BDE8FE8F9BF800600BF1020906F051
:102D40000F0E4FF0000C102B0EDB15F8016BC4F1C9
:102D50001807BE40164315F8012BC4F11007BA40FE
:102D60003243103B10343FE0E618002ED4DD002B38
:102D700006DD15F8017BC4F1180C07FA0CF73A438D
:102D8000082B05DD15F8013BC4F11004A3401A43DC
:102D90003446771E4FF000463E41002332404FF04C
:102DA0000B0C0B3420E000BFCEF1200622FA06F710
:102DB00039F817703E0BA41BB240C7F303162EB1AF
:102DC00002F00048520048EA0606641EC7F30327D3
:102DD0002FB102F00048520048EA0707641E64451C
:102DE00076DBE0E80267891E002903DD0B2CAADBF5
:102DF000DAE702E0A4EB0C00E7E04FF0000C5F46DE
:102E0000CDF804C0102B12DB15F801CBC4F1180863
:102E10000CFA08FC4CEA020C15F8012BC4F110085E
:102E200002FA08F2103B42EA0C021034C4E004EB50
:102E30000309B9F1000F4BDD002B0FDD15F801CBB5
:102E4000C4F118080CFA08FC4CEA0202082B05DD54
:102E500015F8013BC4F11004A3401A43A9F101087D
:102E60004FF0004C4CFA08FC0CEA02024FF00B0C3D
:102E7000002309F10B04CDF804C09DE097F800C0D1
:102E80000CF00F09C9F1200C22FA0CFC07EB4C0CDA
:102E9000BCF802805FEA183C0BD002FA0CF2C8F3CF
:102EA000031EA4EB0C04C8F30329BEF10F0F07D0D7
:102EB0003AE0A4EB090402FA09F207EB48077BE0C9
:102EC000032E34D1B9F1000F03D04FF0010C02E012
:102ED00078E04FF0000C009F674404EB030C7F1C6C
:102EE000BC4576DB0AE000BF15F801CBC4F1180839
:102EF0000CFA08FC083B4CEA02020834BC42F3DB43
:102F0000002B08DA1C44A4F1010C4FF00047002309
:102F100047FA0CF73A40009FC7F1200722FA07F75B
:102F2000BE44009FE41BBA40BEF1000F05D002F082
:102F30000047520047EA0E0E641EB9F10F0F29D167
:102F4000032E2AD1009F04EB030C7F1CBC4540DB01
:102F50000AE000BF15F801CBC4F118080CFA08FC10
:102F6000083B4CEA02020834BC42F3DB002B08DACF
:102F70001C44A4F1010C4FF00047002347FA0CF762
:102F80003A40009FC7F1200722FA07F7B944009F93
:102F9000E41BBA40B9F1000F05D002F0004752001F
:102FA00047EA0909641E019FBC4212DB40F804EBAA
:102FB0005F4640F8049B891E002904DD0B2CFFF6B8
:102FC00021AF5BE705E00198201A02991844081A1E
:102FD000AFE65046ADE60000504201082C21010842
:102FE000D04201082DE9F84F8146DDE90A54002B53
:102FF00002DC0020BDE8F88F4848494E50F8220016
:1030000000EB060E474850F8220000900022604274
:1030100010F0070404D015F8012BC4F12000824001
:103020000020A3EB040A8346C91E74E0BAF1100F16
:103030000FDB15F8013BC4F11806B340134315F834
:10304000012BC4F11006B2401A43AAF1100A103441
:103050005DE004EB0A03002BCCDDBAF1000F05DDC7
:1030600015F8016BC4F11807BE403243BAF1080FDE
:1030700005DD15F8016BC4F11004A64032431C466F
:103080005E1E4FF0004333411A404FF0000A4FF0EC
:103090000A0B0A343BE0009BC3F1200322FA03F33E
:1030A0001EF803603309E41A9A40C6F3C00323B143
:1030B00002F000473B435200641EC6F3800CBCF193
:1030C000000F05D002F00047520047EA0C0C641EC6
:1030D000C6F340072FB102F00048520048EA070744
:1030E000641E16F0010605D002F00048520048EABE
:1030F0000606641E5C45FFF67DAFC9F8003009F195
:103100000403001D43F804CBE3E8027699468842A5
:1031100001DA0A2CBFDA884288DB6BE72044010819
:10312000D0430108284401082DE9FF4F574F03F011
:103130000304564D103F064605EB841557F82490BE
:1031400000201F24B4EBA30F1BDD9B10DC1C1F2CE5
:1031500018DA002C00DC0024002700976F686FF05D
:10316000004E27410197AF6827410297EF6827413A
:10317000039780CE27F00044042C05DA5DF8244044
:1031800078E01F231F24E7E7102C0ADA55F82440C3
:10319000002B04DAC3F1000C04FA0CF46AE01C41C1
:1031A00068E0402C0BDADFF8E8C00CEB840454F83C
:1031B000404C84FB09C4A046A3F1030C4AE064041C
:1031C0004FF0000BB4F1006F02DA24014FF0040B52
:1031D000B4F1005F02DAA4000BF1020BB4F1804FEE
:1031E00002DA64000BF1010BDFF8A8C0644504DAD1
:1031F000DFF89CC00CF1C00C03E0DFF894C00CF1C8
:10320000D40CE246DCF800C08CFB04C8DAF804C039
:10321000C4448CFB04C8DAF808C0C4448CFB04C85E
:10322000DAF80CC0C4448CFB04C4DAF810C0DFF830
:103230006880644458F82BC084FB0CC4E40084FB11
:1032400009C4DFF854C0A046ACF1200C5CF82B4058
:10325000A3EB040CBCF1000F0ADACCF1000C2EFA3F
:103260000CF4444501DA744604E008FA0CF401E079
:1032700048FA0CF42043002F00DA644210C1521EB9
:103280007FF477AF04B0BDE8F08F0000041F0108A1
:10329000042001089A79825A0C2101082DE9F04F87
:1032A00080462DED028B89B007A800F007FB08903F
:1032B0007AA1002008F040FB04F0E8F9864909688B
:1032C000461A00249FED858A69E00798075D8448C7
:1032D00007EB470500EB85008246D0F804B0008973
:1032E000584401460090584602F086FA81467C48D0
:1032F0007C49B8F1000F50F8250001EB800050F830
:10330000045C95ED0D0AB8EE400A60EE080A00EE86
:10331000106AB8EE401A80EE810A10EE100A1ED034
:103320000DF028FF642209FB02F3BAF80820D5F853
:1033300038C00DF1100ECDF804908EE80310B3FBE9
:10334000F2F36948C7EBC70100EB8100CDE9022326
:1033500082685B4665A1002008F0EEFA1BE00DF0E4
:1033600009FF642209FB02F3BAF808200DF1080BEB
:10337000D5F838C08BE80310B3FBF2F35A48C7EB1B
:10338000C70100EB8100CDE9002382684B4663A1B1
:10339000002008F0D1FA0020641CE4B268630898A9
:1033A000844292D3664F674DD7F82890298809EB5D
:1033B000010082460146484602F01EFA97ED0D0ACA
:1033C00004460020B8EE400A786360EE080A00EE7A
:1033D000106AB8EE400A80EE808A04F057F93E4940
:1033E000B8F1000F086018EE100A16D00DF0C2FEFA
:1033F00064222B886243B2FBF3F204AEBB6B86E817
:103400000B002988CDE90212CDE900A44B464EA25B
:1034100036A1002008F090FA13E00DF0ABFE642214
:103420002B886243B2FBF3F202AEBB6B86E80B0063
:103430002888CDE90002234643A238A1002008F0E5
:103440007BFA444D444C28462E19314602F0D4F9FB
:1034500003464FF0640003FB00F0B0FBF4F0B8F15A
:10346000000F0AD003900096CDE901342B463BA211
:103470003EA1002008F060FA06E0CDE9004037A246
:1034800046A1002008F058FA4DA1002008F054FA97
:1034900009B0BDEC028BBDE8F08F00000D0A2D2DA8
:1034A0002D2D2D2D2D2D2D2D2D2D2D2D2D2D2D2D4C
:1034B0002D2D2D2D2D2D2D2D2D2D2D2D2D2D2D2D3C
:1034C0002D2D2D2D2D2D2D2D2D2D2D2D2D2D2D2D2C
:1034D0002D2D2D2D0D0A0000040000200000C842F3
:1034E000602200202C25002080120108253136732F
:1034F0003A20253038782F25303878202530346C24
:10350000642F2530346C64092564252509252E3265
:1035100066252509256C640D0A00000025313673E7
:103520003A202530346C642F2530346C64092564CE
:10353000252509252E3266252509256C640D0A00EE
:10354000C0220020F412010849444C452054415344
:103550004B000000304001200002000053797374DA
:10356000656D20537461636B000000002531367374
:103570003A20253038782F25303878202530346CA3
:10358000642F2530346C64092564252509202D2AF3
:103590002D09202D2A2D0D0A00000000253136733B
:1035A0003A202530346C642F2530346C640925644E
:1035B000252509202D2A2D09202D2A2D0D0A000050
:1035C0002D2D2D2D2D2D2D2D2D2D2D2D2D2D2D2D2B
:1035D0002D2D2D2D2D2D2D2D2D2D2D2D2D2D2D2D1B
:1035E0002D2D2D2D2D2D2D2D2D2D2D2D2D2D2D2D0B
:1035F0002D2D2D2D2D2D0D0A000000007047704738
:10360000704780EAE071A1EBE070704780EAE071FA
:10361000A1EBE07070470022AFF3008030B50E4B95
:10362000054601205C7A012C15D8587A00241C54D8
:10363000587A03EB800045605D7A03F108002A5454
:10364000587A421C5A72303008703A2048702F2045
:103650008870CC70002030BD68E00020002100F0B0
:1036600001B800000B4910B502464B7A0120002B2F
:103670000FD01278303AD2B201EB82035C68002C92
:1036800007D000200A4458601072487A401E4872E1
:10369000002010BD68E000202DE9F0471E000D4617
:1036A00004463BD0D107C6F11F074FF001004FF091
:1036B000000800FA07F0A0F10109C24672D02068A4
:1036C000C11740FA07F28A4201D089EA0100B040EE
:1036D0002060FFF796FF40EA080854F8800F404248
:1036E000C11740FA07F28A4201D089EA0100B040CE
:1036F0002060FFF786FF40EA08082868C11740FAF3
:1037000007F280348A4201D089EA0100B04001C545
:103710000AF1020ABAF1120FD1DB70E0D0073DD0F6
:103720004FF42070D4F880C107594FF46070D4F87A
:10373000808006594FF49060CCF1000C05594FF48D
:10374000B060C8F1000803594FF4D0607F420259BD
:103750004FF4F060764201594FF408606D4250F822
:1037600004904FF42070C4F880C1C4F880800751E1
:103770004FF460705B4206514FF490605242055125
:103780004FF4B060494203514FF4D06002514FF4FE
:10379000F0600151C9F10000C4F880080020BDE8C4
:1037A000F087FFE72068C11740FA07F28A4201D08C
:1037B00089EA0100B0402060FFF723FF40EA0808D3
:1037C00054F8800FC11740FA07F28A4201D089EA03
:1037D0000100B0402060FFF714FF40EA08082868A5
:1037E000C11740FA07F280348A4201D089EA010009
:1037F000B04001C50AF1020ABAF1120FD2DB40460D
:10380000CDE700001CB5044603F07EFF01462068AA
:10381000FCF788FD002818D072B60D48818A00692F
:10382000090481610B48406A01F077FB0AA1E52099
:10383000CDE9000114A318A296211D48FCF7E2FE71
:103840001B491CA0FCF7BCFEFEE760681CBD000025
:103850004C00002000AB00205F667265655F626F00
:1038600078282070506F72742D3E704275666650D5
:103870006F6F6C2C207046726565427566662029F4
:10388000203D3D20300000006465627567707269FC
:103890006E742E63000000004153534552543A2089
:1038A000257328256429202D205B25735D000000E9
:1038B0009827002025730D0A0000000001490160CF
:1038C00004207047201301082DE9F04104460068E8
:1038D000016821F00101016000F076FA054600263A
:1038E0004FF47A7710E000BF00F06EFA401BB84248
:1038F0000AD954F84C0F40F0200044F8180903206E
:1039000026706070BDE8F08120680068C007EBD1C8
:1039100004F8346F012060700020F3E770B50400F4
:1039200025D094F83500022821D02068016821F0C4
:10393000010101602068002505602068456020685D
:1039400085602068C5602068056121682120486184
:103950002046FFF71DF994F854203F2191408160E3
:10396000E56484F8355084F83450002070BD01209F
:1039700070BD00002DE9F041056D0446296890F8FE
:103980005420082000FA02F211424FF004074FF0D1
:10399000000617D021680A68520713D50A6822F07A
:1039A00004020A6094F854108840A860E06C40F06B
:1039B0000100E06484F8357084F83460A16C09B1CA
:1039C00020468847296894F85420514800FA02F2AA
:1039D000114217D021684A69120613D54A6922F0AC
:1039E00080024A6194F854108840A860E06C40F06E
:1039F0000200E06484F8357084F83460A16C09B189
:103A0000204688472968424894F85420C01C00FA90
:103A100002F2114217D021680A68920713D50A688A
:103A200022F002020A6094F854108840A860E06C0A
:103A300040F00400E06484F8357084F83460A16CD0
:103A400009B1204688472A6894F85410102000FADB
:103A500001F31A421BD021680A68120717D50A68B9
:103A600057034FF0310228D5AB6020680168090385
:103A700003D400BF84F8352005E00068000302D5B8
:103A8000412084F83500216C09B1204688472B6815
:103A900094F85410202000FA01F2134236D0216825
:103AA0000B68DB0632D50B685B031CD5AA60206867
:103AB000016809030DD4616C0FE00B68DB0503D4CA
:103AC0000B6823F008030B6094F854108840A8603A
:103AD000D0E70068000319D5E16B002916D0204615
:103AE000BDE8F04108470A68D20503D40A6822F00D
:103AF00010020A6094F854108840A860E06CE064FA
:103B0000112084F8350084F83460E5E7BDE8F081E1
:103B10000100800070B504001AD00220636A84F8A6
:103B200035002268116818480140D4E9010528438E
:103B3000D4E903563543284365692843A5692843DA
:103B4000E5692843256A28430843042B02D005E091
:103B5000012070BDD4E90B1319430843106022689B
:103B60005069616A20F007000843042901D1A16A65
:103B7000084350612046FFF70BF80020E064012065
:103B800084F83500002070BD3F8010F070B5044609
:103B900090F8340001281ED0012084F8340002205F
:103BA00084F835002068056825F001050560204689
:103BB000FFF702F82068016841F01E0101602068EB
:103BC000416941F0800141612068016841F00101D3
:103BD0000160002070BD022070BD31B500F0F4F826
:103BE000044600F0F1F80099001B8842F9D338BD73
:103BF0002DE9F84FDFF888B100224FF001084FF0AF
:103C0000030A4FF00F090BF1040E00BF0B6808FA0E
:103C100002F42340A3426ED14D68022D01D0122D33
:103C20000ED1D50800EB850CDCF820505607F70EB6
:103C300009FA07F6B5430E69BE402E43CCF8206062
:103C4000066855000F790AFA05FC07F0030726EA13
:103C50000C06AF40374307604E68012E05D0022E98
:103C600003D0112E01D0122E0ED18668CF6826EA1D
:103C70000C06AF40374387604668A6430C79C4F30F
:103C80000014944034434460C4688E6824EA0C04F1
:103C9000AE402643C6604C68E4006AD5394C2568BE
:103CA00045F480452560246822F0030504F480442F
:103CB0000094354C2E19D6F8084895072F0F09FAAD
:103CC00007F5AC43314DA84201D1002529E0304D24
:103CD000A84201D1012524E02E4DA84201D10225A0
:103CE0001FE02D4DA84201D103251AE02B4DA8421B
:103CF00002D1042515E03CE0294DA84201D105255B
:103D00000FE0284DA84201D106250AE0264DA84221
:103D100001D1072505E0254DA84201D1082500E085
:103D20000925BD402543C6F80858DBF800405D462C
:103D30004E689C43F60300D51C432C60DEF800401F
:103D400075464E689C43B60300D51C432C600C4D51
:103D500008352C684E689C43F60200D51C432C6045
:103D6000074D0C352C684E689C43B60200D51C43A9
:103D70002C60521C102AFFF449AFBDE8F88F0000F8
:103D8000003C014044380240003001400000024045
:103D90000004024000080240000C024000100240F3
:103DA0000014024000180240001C024000200240A3
:103DB0000AB1816170470904FBE70000014800680F
:103DC000000C7047002004E005480068406A00EBE2
:103DD000C00101EB00104FF47A71B0FBF1F07047B5
:103DE000C4AA0020D0F8940204F0EFBCD0F89402EA
:103DF00004F008BD006806F0C3BA006806F0C4BA53
:103E000001EB810100EBC10090F85C00704701EB11
:103E1000810100EBC100C06C704710B5044690F8FA
:103E20009002012809D0012084F89002206806F051
:103E3000B6FA002084F8900210BD022010BDFEB535
:103E40000546DDE9096095F89042089F012C1ED0D7
:103E5000012485F8904201EB810405EBC40402F0D3
:103E60007F0C04F8383F20816170E67184F802C04D
:103E70004FEAD21C84F803C027710097CDE9016096
:103E8000286806F049FB002185F89012FEBD02204B
:103E9000FEBDD0F8940204F059BD2DE9F00301EB0A
:103EA0008104DDE90689DDE908C700EBC4040226C8
:103EB00084F83B2084F83F30B8F1000F0AD084F832
:103EC0004260002553B1012B3FD0022B1DD0032BA4
:103ED0002AD120E0032584F84250F2E7B8F1010F1F
:103EE00022D10ABBBCF1000F10D1012284F851206D
:103EF00002E084F8425001E084F8426094F85C20CB
:103F0000022A11D084F83D700EE02AB994F85120AD
:103F1000002AF1D1EDE712B194F8502001E094F8B5
:103F2000512092B184F84260C4E9119C84F85C503D
:103F3000E56484F8391084F85D50027C04F138019E
:103F40000068BDE8F00306F063BB84F84250EBE77D
:103F50002DE9F041044600680025064606F01BFAEC
:103F600001287DD1206806F09CFC002878D02068CC
:103F700006F097FC800203D521684FF400104861D9
:103F8000206806F08EFCC00203D521684FF4801033
:103F90004861206806F085FC400103D521684FF098
:103FA00080604861206806F07CFC800702D52168AB
:103FB00002204861206806F074FC800010D5D6F815
:103FC000400420F02E00C6F840042046FFF70EFF04
:103FD0000121206806F04AFC21684FF0005048613A
:103FE000206806F05EFCC00102D5204601F04CFBC3
:103FF000206806F056FC000705D5204600F0C9F8F9
:10400000216808204861206806F04BFC800120D51B
:10401000206806F0F6FA07464FF0010812E000BFEC
:1040200008FA05F038420CD006EB4510D0F8000530
:10403000E9B20004204602D501F0F7F801E001F0F2
:104040000DFA6D1CA068A842EAD821684FF00070F4
:104050004861206806F025FCC0060ED5206800E007
:104060000BE0816921F010018161204601F064FBC1
:104070002068816941F010018161BDE8F08130B5AF
:104080008BB0040026D0032084F89102204600F073
:1040900023F8206806F010F904F1100128220D46DB
:1040A0006846FCF71CFD94E80F0006F0B3F8012108
:1040B000206806F020FC282229466846FCF70FFD00
:1040C00094E80F0006F068FB012084F891020020BC
:1040D0000BB030BD0120FBE7F0B5006887B0B0F150
:1040E000A04F4AD126480025016841F00101016036
:1040F000016801F001010591016841F004010160CE
:1041000000680A2600F0040005904FF4C0500090AB
:104110000220CDE901050320CDE90306194F6946C8
:104120003846FFF765FD38150090122001240496EB
:10413000CDE9010469463846FFF75AFD0094694607
:104140001148CDE90145FFF753FD0D48001D0168F9
:1041500041F0800101600A481430016841F4804157
:1041600001600068002200F4804005900521432092
:1041700000F068FA432000F05AFA07B0F0BD0000E2
:10418000303802400000024000080240006806F09B
:104190009CBBD0F8940204F0A7BB10B5044690F87D
:1041A000900201280DD0012084F89002206806F0CA
:1041B000BFF80121206806F0A5F8002084F89002DD
:1041C00010BD022010BD10B5044690F890020128E1
:1041D00009D0012084F89002206806F0A2FB00209C
:1041E00084F8900210BD022010BD90F83500704791
:1041F00070B5040004D094F83500002510B106E035
:10420000012070BD84F83450204600F071F802207F
:1042100084F835002068016821F00101016000F098
:1042200051FC31492268B0FBF1F151602F4A6368BB
:10423000934206D94FF4967359434FF47A73B1FB06
:10424000F3F12368491C1962616891420BD8490057
:10425000B0FBF1F2C2F30B02042A01D2042019E0F0
:10426000B0FBF1F016E0A36883B301EBC10202EBEF
:104270000112B0FBF2F242F4804212052CD06BB373
:1042800001EBC10202EB0111B0FBF1F040F4804000
:1042900040F400402168C861D4E90701084321685F
:1042A0000860D4E90310084321688860D4E9050157
:1042B00008432168C8602068016841F0010101607D
:1042C000A563012084F83500002070BDFFE701EBF5
:1042D0004102B0FBF2F2D0E70120DBE701EB410144
:1042E000B0FBF1F0D4E7000040420F00A0860100CF
:1042F000704700002DE9F041044690F83C00012889
:1043000015D04FF0010884F83C802068416821F006
:10431000020141602068416821F001014160206A8A
:10432000244D254E4FF04027012803D01EE00220E7
:10433000BDE8F0812068A84201D1304600E038464F
:10434000406820F0020001D1314600E03946486063
:104350002068A84201D1304600E03846406820F08D
:10436000010101D1304600E038464160606B08B180
:10437000FFF7AAFAA06B08B1FFF7A6FA2068C16997
:1043800021F48061C161206A01280BD12068A84214
:1043900001D1304600E03846C06920F4806000D08A
:1043A0003E46F06184F83D804FF0000084F83C0008
:1043B000BEE700000038004000340040704790F82D
:1043C0003D0070472DE9F05F4FF0000704004FF00B
:1043D00002064FF001083D4605D094F83D004FF02D
:1043E000000B18B107E00120BDE8F09F84F83CB055
:1043F000204600F099F84FF0020984F83D902168BA
:10440000CA6940F6BF7A22EA0A02CA612168C1F885
:1044100020902068C3696069022821D0E06800B15B
:10442000C846204601F062FD2169B1F5007F2CD01D
:104430004FEA4811B0FBF1F000EB800061694000E9
:10444000B0FBF1F0401D0A21B0FBF1F505F00100D1
:10445000291A4E080702B01EFE2801D302260027A3
:10446000206921683E4330430862D4E901010843D2
:10447000A269E168114308432168184340F40060D1
:10448000C861206A012802D040E0000AD4E724482D
:104490002168244A4FF04023814201D1114600E0B7
:1044A0001946C96921EA0A0101D1164600E01E46F3
:1044B000F16126684946864201D1164600E01E4653
:1044C00031622668864201D1114600E01946CF6963
:1044D00061684FF4807CB1F5007F1ED0E9B1B1F581
:1044E000407F01D0614500D10025D4E9021C41EA9A
:1044F0000C01D4F818C04CEA050C41EA0C01394310
:1045000041F40061864200D01A46D161C4F840B03F
:10451000012084F83D00002066E76546E5E70000DD
:1045200000380040003400407047000070B5044679
:1045300029B122B194F83D00012802D042E00120C7
:1045400070BD61622068C06900F00700032832D0A6
:10455000052830D02285628594F83C00012831D0AE
:10456000012084F83C00122084F83D0000252564D9
:10457000626B15481064626B1448D063626B144818
:104580009064238D2268606B0C32FFF7FFFA20687D
:10459000C169490503D4C16941F48061C1612068E2
:1045A0004168890703D4416841F00201416084F801
:1045B0003C50002070BD4FF6FF7000EA420020859D
:1045C0006085C9E7022070BDE15E00087D5E0008DD
:1045D0005D5E000810B500680249884201D1FEF70F
:1045E00023FA10BD003C004010B500680249884223
:1045F00001D1FEF783F910BD003C0040094810B519
:10460000016841F400710160016841F4806101605A
:10461000032000F037F80F2000F006F800F006F84D
:10462000002010BD003C024000207047704700F0A1
:104630001F02012191404009800000F1E020C0F8F4
:1046400000117047F0B40E4B1B680C46C3F30223F5
:10465000C3F10705042D00D90425191D072901D22E
:10466000002300E0DB1E012606FA05F1491E214069
:1046700099409E40761E16403143F0BC02F0B7BF11
:104680000CED00E0064900F0070208684FF6FF0352
:10469000184040EA0220034A1043086070470000B7
:1046A0000CED00E00000FA05124A032101601168D8
:1046B00047F6C073194093FAA3F3B3FA83F3D940D2
:1046C000416011684FF0E04292FAA2F201F0E0413D
:1046D000B2FA82F2D140816006497C390968054A04
:1046E00001F4F811143A126802F440720A43C260ED
:1046F00070470000843802402DE9F84305460078F1
:104700004FF00109C0074FF0000633D0DFF82081D9
:10471000C8F86860FFF758FB0746464C05E000BF45
:10472000FFF752FBC01B642861D820680001F7D452
:1047300047F6C07191FAA1F16868B1FA81F1884039
:104740004FF0E04292FAA2F2A968B2FA82F29140E6
:104750000843384984310860C8F86890FFF734FB93
:10476000074604E0FFF730FBC01B64283FD82068F1
:104770000001F7D52878800750D52E4840300168D1
:1047800041F08051016000682B4C00F08050009097
:10479000206840F480702060FFF716FB074604E0B5
:1047A000FFF712FBC01B642821D82068C005F7D58D
:1047B000204C70342068A98900F4407001F44071E5
:1047C00088422BD020681D4920F44070C1F8009029
:1047D0000E602060800710D5FFF7F6FA064641F21A
:1047E000883707E0FFF7F0FA801BB84202D90320B0
:1047F000BDE8F88320688007F4D5E9680D48C1F367
:1048000001220830032A0BD0016821F4F81101605D
:104810002068A989C1F30B01084320600020E7E765
:104820000268074B22F4F81219400A430260EFE7CE
:10483000000047420038024000700040400E4742EE
:10484000FFFCFF0F2DE9F05FDFF8FCA104460F46E7
:10485000DAF80000DFF8F48100F00F017B4807F080
:10486000FF0941F2883508F10808B94262D28AF896
:104870000090DAF8001001F00F01B9427ED12178E2
:10488000890707D5D8F80020A36822F0F0021A4360
:10489000C8F800202178C9072ED0616801291AD0F4
:1048A00002291BD0032919D000688007002865DA87
:1048B000D8F80000464620F003000843C8F800007E
:1048C000FFF782FA07466068012810D002281AD044
:1048D00003281ED029E000688003E7E70068800114
:1048E000E4E700BFFFF770FAC01BA84259D8306850
:1048F000C0F381000128F5D189E000BFFFF764FA19
:10490000C01BA8424DD83068C0F381000228F5D101
:104910007DE03068FFF758FAC01BA842F9D940E0A3
:10492000FFF752FAC01BA8423BD8306810F00C0FBA
:10493000F6D16CE02178890707D5D8F80020A36864
:1049400022F0F0021A43C8F800202178C9074CD0A1
:104950006168012928D0022929D0032927D00068BD
:104960008007002849DAD8F8002022F003020A4321
:10497000C8F80020FFF728FA064600E03DE060682E
:1049800001281DD0022829D0032838D0AB4645463F
:10499000286810F00C0F28D0FFF716FA811B594534
:1049A000F6D90320BDE8F09F00688003D9E70068CE
:1049B0008001D6E7FFF708FA811B594502D9F0E7D5
:1049C000AB4645462868C0F381000128F2D10CE0CF
:1049D000FFF7FAF9811B594502D9E2E7AB46454694
:1049E0002868C0F381000228F2D18AF80090DAF832
:1049F000000000F00F00B84209D00120D2E7444681
:104A00002068FFF7E1F9801BA842F9D9C9E72078AF
:104A1000400707D5D8F80010E26821F4E0511143AF
:104A2000C8F800102078000708D5D8F800102269CF
:104A300021F4604141EAC201C8F800100F20FFF7DD
:104A4000F3FD0020AEE70000003C024000380240C9
:104A50000F2202600C4A136803F0030343601368DB
:104A600003F0F0038360136803F4E053C36012683B
:104A70004FF4E05303EAD20202610448006800F0F8
:104A80000F0008607047000008380240003C0240F8
:104A900010B500F043F808490968F02292FAA2F232
:104AA00001F0F001B2FA82F2D140044A515CC840F0
:104AB0000349086010BD0000083802407012010868
:104AC0007C00002010B5FFF7E3FF074909684FF4A9
:104AD000E05292FAA2F201F4E051B2FA82F2D1402D
:104AE000024A515CC84010BD0838024070120108EB
:104AF00010B5FFF7CDFF074909684FF4604292FAFD
:104B0000A2F201F46041B2FA82F2D140024A515C51
:104B1000C84010BD083802407012010830B519486D
:104B2000006810F00C01184812D0441004290ED06F
:104B300008290DD11349091F0A6802F03F030A68CA
:104B4000550247F6C07204D5B4FBF3F003E02046EB
:104B500030BDB0FBF3F00B680968134092FAA2F283
:104B6000B2FA82F2D34058434FF4403292FAA2F2A2
:104B700001F44031B2FA82F2D140491C4900B0FB45
:104B8000F1F030BD083802400024F4002DE9F84F60
:104B900004460078DFF81C83C74DC0074FF00006BD
:104BA0004BD0D8F800104046C1F38101012908D04C
:104BB0000068C0F3810002280AD1281D0068400265
:104BC00006D52868800338D56068002871D034E0A5
:104BD000DFF8E4A20AF1020A8AF80060FFF7F4F8AD
:104BE000814641F2883705E0FFF7EEF8A0EB0900B7
:104BF000B8427DD828688003F6D420798AF800006E
:104C0000606868B1FFF7E0F8814605E0FFF7DCF87F
:104C1000A0EB0900B842ECD828688003F6D50CE078
:104C2000FFF7D2F8814605E0FFF7CEF8A0EB0900C8
:104C3000B842DED828688003F6D420789F4F8007DA
:104C40004FF0010B45D5D8F80010404611F00C0F7D
:104C50004FF0F80A09D00068C0F3810002280BD198
:104C60009448001F0068400206D42868800714D5C5
:104C7000E06801281DD110E0E068D8B1C7F800B0A5
:104C8000FFF7A2F8814605E0FFF79EF8A0EB0900C8
:104C90006428AED828688007F6D528689AFAAAF260
:104CA0002169B2FA82F220F0F800914008432860AE
:104CB0000FE0FCE03E60FFF787F8814606E000BFAA
:104CC000FFF782F8A0EB0900642811D82868800754
:104CD000F6D42078000729D5DFF8D8A17848616993
:104CE0000AF16C0A99B1C0F800B0FFF76DF800E066
:104CF00086E0814606E000BFFFF766F8A0EB0900FA
:104D000064287DD8DAF800008007F5D50EE006604B
:104D1000FFF75AF8814605E0FFF756F8A0EB0900C7
:104D200064286DD8DAF800008007F5D420784007B1
:104D30005AD560483830016841F080510160006800
:104D4000DFF880A100F080500090DAF8001041F404
:104D50008071CAF80010FFF737F8814606E000BFFF
:104D6000FFF732F8A0EB0900642849D8DAF8000010
:104D7000C005F5D5DFF83C9109F1680989F80060B4
:104D8000FFF722F841F2883A009005E0FFF71CF89F
:104D90000099411A514533D8D9F800008007F5D45D
:104DA000207A89F80000A06878B1FFF70DF800902C
:104DB00006E000BFFFF708F80099411A51456ED888
:104DC000D9F800008007F5D50EE0FEF7FDFF009052
:104DD00006E000BFFEF7F8FF0099411A51455ED882
:104DE000D9F800008007F5D4A069E8B3D8F800101E
:104DF000C1F3810102295AD002283E6605D000E0A5
:104E00004DE0FEF7E1FF04464CE0FEF7DDFF06460D
:104E100005E000BFFEF7D8FF801B64283FD8286854
:104E20008001F7D4D4E90701084347F6C07292FA2B
:104E3000A2F2616AB2FA82F29140A26A4FF0FF33A5
:104E400003EB52024FF4403393FAA3F3B3FA83F324
:104E50009A40114308434FF0706292FAA2F2E16A5D
:104E6000B2FA82F2914000E01FE008431149091FA5
:104E70000860C7F860B0FEF7A7FF044605E000BF72
:104E8000FEF7A2FF001B642809D828688001F7D527
:104E90000BE000BFFEF798FF001B642802D9032037
:104EA000BDE8F88F28688001F4D40020F8E70120DD
:104EB000F6E7000008380240003802400000474290
:104EC000800E47420070004010B5040003D094F8F3
:104ED000390010B107E0012010BD002084F838002F
:104EE000204600F00CF8022084F83900211D2068CB
:104EF00002F0CEFE012084F83900002010BD70477A
:104F0000022180F8391001680A6842F001020A6043
:104F1000012180F839100020704710B50446006860
:104F2000416921F0800141612068416921F040011F
:104F30004161206B08B1FEF7C7FC606B08B1FEF75A
:104F4000C3FC012084F83900002010BD7047000028
:104F500038B5016804460868CA6810F0010F02F409
:104F6000807207D032B1086848680090E06B40F06A
:104F70000100E06308684A69C0F3400002F00102E2
:104F800038B132B1086848680090E06B40F0040026
:104F9000E06308684A69C0F3800002F0010238B19A
:104FA00032B1086848680090E06B40F00200E063AE
:104FB0000868C0F3C002486900F001003AB130B19E
:104FC000086848680090E06B40F00800E0630868FB
:104FD000C968C0F3401001F0200118B111B120469A
:104FE00002F0E2FE21680868C968C0F3C01001F051
:104FF000800118B111B1204602F0E6FF216808686F
:10500000CA68C0F3801002F04002012570B16AB195
:10501000CA68204622F04002CA6094F8391032294A
:105020000DD080F8395000BF00F0E6F8E06B0028A2
:1050300004D084F839502046FFF788FF38BD22217C
:1050400080F83910F0E770B5040004D094F8390006
:10505000002510B106E0012070BD84F838502046CC
:1050600000F020F8022084F839002068C16821F49B
:105070000051C160204602F0EBFE2068016921F476
:10508000904101612068416921F02A014161206855
:10509000C16841F40051C160E563012084F8390022
:1050A000002070BD70B52A49044686B0086840F0FB
:1050B00008000860086800F008000590086840F0E3
:1050C000080008600868224A00F0080010320590C5
:1050D000106840F480201060106800F48020059073
:1050E000086840F4001008600868072500F4001004
:1050F0000590881500900220019001200290032065
:10510000CDE90305134E69463046FEF771FD701573
:105110000090694604953046FEF76AFD204605F08A
:105120006DFC002209210E20FFF78CFA0E20FFF7FC
:105130007EFA2068C16841F02001C16000220A2186
:105140002720FFF77FFA2720FFF771FA06B070BD1E
:1051500030380240000C0240806A10F8011C0148FF
:1051600002F024BB00AB002070B5044690F8390073
:10517000012801D0222836D181B37AB394F83800BF
:10518000012830D0012084F838002162A284E28412
:105190000025E56394F83900222822D05FF0120040
:1051A00084F83900236B1148D863236B10481864C6
:1051B000236B1048986426681346321D206BFEF757
:1051C000E5FC21686FF0400008602068416941F00B
:1051D0008001416184F83850002070BDFFE7012054
:1051E000FBE73220DCE70220F7E700006F7D0008D4
:1051F0009D7D0008517D000810B50068C16821F050
:105200004001C1600748FEF7FDFA002808D000F110
:1052100008018088BDE8104082B2024805F022BC37
:1052200010BD000000AB002070472DE9F05F06467E
:105230000068884600EB4814D4F808054FF0040BCA
:10524000410708EB88004FF0050A4FF0100706EB06
:10525000C00508D5C4F808B5D4F80C0540F0020024
:10526000C4F80C0532E0D4F80805800601D52020EA
:105270002AE0D4F808054FF00809000710D5D4F843
:105280000C0540F00200C4F80C0585F85DA0C4F8D8
:105290000875C4F808954146306805F080F815E0B7
:1052A000D4F80805400511D5D4F80C0540F00200EB
:1052B000C4F80C054146306805F071F8C4F808756B
:1052C00085F85D904FF48060C4F80805D4F80805AF
:1052D00080050ED5D4F80C0540F00200C4F80C058A
:1052E000414604F5A164306805F059F84FF40070A8
:1052F0008DE0D4F808054FF00001C0074FF001021F
:1053000036D0306930B1A86CD4F81035C3F312032D
:10531000C01AE86485F85D20A965C4F8082595F8E9
:105320003F0020B1022802D003280ED019E0D4F8A3
:105330000C0540F00200C4F80C05414604F5A164D8
:10534000306805F02CF827600BE0D4F8000540F039
:105350000050C4F8000585F85C2041463046FEF751
:1053600098FD15F8500F80F001002870BDE8F09FFF
:10537000D4F80805800733D5D4F80C0520F00200D6
:10538000C4F80C0595F85D000223012806D0052815
:1053900007D0062808D0082806D018E085F85C2039
:1053A00015E085F85CA012E0A86D421CAA650328F0
:1053B00003D9A96585F85CB001E085F85C30D4F8C4
:1053C000000520F0804040F00040C4F80005C4F81B
:1053D000083595F85C2041463046FEF75AFDC5E792
:1053E000D4F80805000614D5D4F80C0540F00200E6
:1053F000C4F80C05A86D4146401CA865062085F838
:105400005D0004F5A164306804F0C9FF80202060CD
:10541000ACE7D4F80805C006A8D595F83F000328E6
:1054200003D068B102280BD012E0D4F80C0540F08C
:105430000200C4F80C054146306804F0B0FF07E0F4
:10544000D4F8000520F0804040F00040C4F800058A
:10545000032085F85D00C4F8087587E72DE9F0475B
:10546000026802EB4114D4F808254FF0040C5207EF
:1054700009D5C4F808C5D4F80C0540F00200C4F8FA
:105480000C05BDE8F087D4F8082501EB81039206EE
:105490004FF0020600EBC30514D52022C4F80825FE
:1054A00095F83D20012AECD185F85DC0D4F80C2593
:1054B00042F00202C4F80C25006804F070FF85F881
:1054C0005C60DEE7D4F808254FF0000352060FD5E4
:1054D00085F85DC0AB65D4F80C2542F00202C4F833
:1054E0000C25006804F5A16404F059FF402010E089
:1054F000D4F8082592050ED5D4F80C2542F0020206
:10550000C4F80C25006804F5A16404F048FF4FF4CA
:1055100000702060B5E7D4F808254FF00108D207E5
:1055200010D0AB65D4F80C2542F00202C4F80C256B
:10553000006804F5A16404F032FFC4F8008085F827
:105540005D809EE7D4F808254FF0080912074FF058
:10555000050A0DD5C4F80895D4F80C2542F00202CE
:10556000C4F80C25006804F01AFF85F85DA088E7F0
:10557000D4F808254FF01007D20610D5AB65D4F843
:105580000C2542F00202C4F80C25006804F5A16461
:1055900004F005FF032085F85D00276071E7D4F86B
:1055A000082512060FD5D4F80C2542F00202C4F8E3
:1055B0000C25006804F5A16404F0F1FE062085F8CE
:1055C0005D008020A5E7D4F80825520511D5D4F850
:1055D0000C2542F00202C4F80C25006804F5A16411
:1055E00004F0DDFE27604FF48060206085F85D9058
:1055F00047E7D4F8082592078CD5D4F80C2522F07B
:105600000202C4F80C2595F85D20012A0AD0032A6D
:1056100015D0042A16D0052A19D0062A1AD0082A2D
:1056200018D02AE085F85C8095F83F20022A24D122
:1056300095F8512082F0010285F851201DE085F88F
:105640005C601AE085F85C6085F83D3015E085F80F
:105650005CA012E0AA6D571CAF65032A03D9AB65A5
:1056600085F85CC001E085F85C60D4F8002522F084
:10567000804242F00042C4F80025C4F8086595F85D
:105680005C20FEF706FCFCE67CB505680446D5F810
:1056900040040190D5F8400420F02E0000900198BD
:1056A00080070DD50198C00706D0A86920F00051E9
:1056B000A9612046FEF796FB009840F0020000909A
:1056C0000198000727D5009840F008000090019845
:1056D00040072AD5A069022803D0E06803280CD02F
:1056E0000FE00198C0F341400228206803D0012157
:1056F00005F0BCF805E00221FAE74EF66020C5F897
:1057000004042046FEF76EFBE06820B9206881693A
:1057100041F00051816101988006009802D540F067
:1057200020000090C5F840047CBDD5F8400420F06E
:105730002E00C5F84004E9E72DE9F0410246006873
:105740000646016AC1F3434301F00F07C1F30A148F
:10575000022B25D1002C23D007EB870102EBC105DA
:10576000696C00291CD0224605F09FF8686C204423
:105770006864E86C2044E86406EB4710D0F8101524
:10578000084A11420CD0D0F8001521F0804141F0B8
:105790000041C0F8001515F8500F80F00100287086
:1057A000BDE8F0810000F81F08B50DA0FAF708FF6A
:1057B0000F4810490022846A838DA3610092009BE8
:1057C0005B1C00938B42FAD3838D846A1B04A36114
:1057D0000092009B5B1C00938B42FAD3EBE7000026
:1057E000212148415244204641554C54212100007A
:1057F0004C00002080841E0070B5024613468507C9
:105800000C46A1EB030017D18D0715D10B4D0C4EA3
:10581000A3420FD2E01A03EB500020F003021068FD
:10582000A84203D0B04201D01446F1E7101D134640
:10583000A042EDD1881A001F70BD000046524545B8
:105840005354414B2DE9F04F97B0002598469346AD
:10585000894607462C46209E1BE000BFD8E905304C
:1058600018B17069A04200DD0023D6E90301A1420E
:1058700000DD0020B1690090CDE901410BEB84020D
:105880004946384600F036FC0543641C09F12409FA
:1058900048373068A042E1DC13E000BFD6E90330AE
:1058A000A04200DD0023B0690BEB8402CDE900408B
:1058B0004946384600F046FB0543641C09F12409BB
:1058C00048377068A042E9DC009441E0D6E9032043
:1058D000A04200DD002203A9484605F047FCE0078E
:1058E00015904FF0000A04F001005746029003A8FB
:1058F0000BEB072150F83700019180004AEA000ABB
:1059000041F82400FDF77DFE40EA050803A800EBFE
:10591000C70015994068800080EAE1710298084448
:1059200001994AEA000A01EB8401C1F88000FDF701
:1059300068FE40EA0805002049F827007F1C092F6F
:10594000D5DB09F12409BAF1000F00D00094641CE2
:10595000B068A042BADC0021202C0ADA5FF0000017
:105960000BEBC012401C42F824101228F8DB641C18
:10597000F2E70DB1002003E0202003E06D00401CA1
:10598000002DFBDA401EF061009817B0BDE8F08FE3
:1059900000F002B800F036B8184882B00021026862
:1059A000536900935B0504D5536923F48063536105
:1059B0000091009A920505D50268536923F400739B
:1059C00053610091009AD20505D50268536923F40A
:1059D000807353610091009A120505D500684269F1
:1059E00022F40062426100910449022018390872D1
:1059F0000348416A022002B007F00EBF943F012025
:105A0000602200202DE9FC47524D00262A6850698B
:105A10000090906901900098A5F11804C3074E48C2
:105A2000017807D02368012901D143F001031361F4
:105A300000960196009A4FF0010892074FF6FF3743
:105A400022D5012912D062682B681A61022906D179
:105A500080F8008029680A6842F480720A6021692F
:105A600081B929684A683A404A600BE021690129F6
:105A700008D129680A683A400A6029680A6842F42D
:105A800000720A6000960196009901F08401802955
:105A900016D1017891B9216981B16169E2680A443E
:105AA000491C616111782A6811612169491E2161CF
:105AB000216919B929684A683A404A6000960196F6
:105AC000009A8421DFF89490914315D1007888B929
:105AD0002868016841F400710160286841684FF648
